:100000000207644C43442053696D706C652044655D
:090010006D6F20436F64650A0066
:10002300020598E54C2440F8E6054C22783D30075C
:10003300027840E475F0011204F70203822000EB1A
:100043007F2ED2008018EF540F2490D43440D4FF75
:1000530030040BEF24BFB41A0050032461FFE54DB5
:100063006002154D0550E5507002054F30070D78BD
:100073003DE475F0011204F7EF0204E5020718747A
:1000830003D2078003E4C207F54C8B3D8A3E893FC8
:10009300E4F54DF54FF550E54D60077F2012006103
:1000A30080F5754EFFC201C200C202C203C205C27F
:1000B30006C20812002FFF700D3007057F001200E3
:1000C30072AF50AE4F22B4255FC2D5C20412002FC7
:1000D300FF24D0B40A00501A75F00A784D30D505C4
:1000E30008B6FF0106C6A426F620D5047002D20383
:1000F30080D924CFB41A00EF5004C2E5D20402021F
:1001030072D20180C6D20080C0D20280BCD2D58018
:10011300BAD20580B47F201200612002077401B5B2
:100123004D0040F1120026FF12006102009AD2082E
:10013300D2068095120026FB120026FA120026F939
:100143004A4B700679437A037BFF20022EE54D600C
:100153002A7E008E827583001204B860060EEE6557
:100163004E70F0C2D5EBC0E0EAC0E0E9C0E0EE12A9
:1001730002B9D0E0F9D0E0FAD0E0FB120382FF60CD
:10018300AAEBC0E0EAC0E0E9C0E0120061D0E024DD
:1001930001F9D0E03400FAD0E0FBE54E0460DCD591
:1001A3004ED980877BFF7A0279B5D202809C791081
:1001B30080027908C206C2088008D2D5790A800471
:1001C300790AC2D5E54E047002F54EE4FAFDFEFF4E
:1001D300120026FC7B08200113120026FD7B103041
:1001E300000A120026FE120026FF7B20EC3382D584
:1001F30092D55013C3E43000069FFFE49EFEE42033
:1002030001039DFDE49CFCE4CBF8C201EC700CCF30
:10021300CECDCCE824F8F870F38017C3EF33FFEEAC
:1002230033FEED33FDEC33FCEB33FB994002FB0F64
:10023300D8E9EB300105F8D0E0C448B201C0E00AC8
:10024300EC4D4E4F78207B0070C2EAB54E0040BCA7
:10025300C0E01202BBD0F0D0E0200104C4C0E0C46F
:10026300B201C0F012004AD0F0D5F0EB02009A12AE
:10027300050701375301B15801084C01044201B588
:100283004F01BD4401BD49011D4301C35501A746AB
:1002930001A74501A747036350010C2D01102E014F
:1002A300332B011423013120034C2A00CC480000D6
:1002B300012B3F3F3F00790AA2D5200314300509E3
:1002C300B910020404B9080104A2D52006025001A2
:1002D300042002689202B54D005034C0E07F203004
:1002E30003197F30A20272067205500F120312C265
:1002F30002C206C205C2087F30800F300503E9C081
:10030300E0120061300503D0E0F9D0E0B54DCC3008
:1003130005177F30B9100C1200617F583004077F36
:10032300788003B908031200613002057F2D0200B3
:10033300617F202008F87F2B2006F322920280CFD2
:10034300286E756C6C2900D2011200263001F8C2A8
:1003530001784D30D50108F60200CC2D50434958A1
:100363001200262403B405004001E490035E9312B7
:100373000052743A120052D203754D040201B1BB0C
:10038300010689828A83E0225002E722BBFE02E350
:100393002289828A83E49322E88FF0A4CC8BF0A491
:1003A3002CFCE98EF0A42CFC8AF0EDA42CFCEA8E44
:1003B300F0A4CDA8F08BF0A42DCC3825F0FDE98F67
:1003C300F0A42CCD35F0FCEB8EF0A4FEA9F0EB8F5E
:1003D300F0A4CFC5F02ECD39FEE43CFCEAA42DCE2B
:1003E30035F0FDE43CFC2275F008758200EF2FFF29
:1003F300EE33FECD33CDCC33CCC58233C5829BEDFA
:100403009AEC99E58298400CF582EE9BFEED9AFDFD
:10041300EC99FC0FD5F0D6E4CEFBE4CDFAE4CCF9AD
:10042300A88222B800C1B90059BA002DEC8BF08420
:10043300CFCECDFCE5F0CBF97818EF2FFFEE33FEEE
:10044300ED33FDEC33FCEB33FB10D703994004EBA6
:1004530099FB0FD8E5E4F9FA227818EF2FFFEE3372
:10046300FEED33FDEC33FCC933C910D7059BE99A84
:100473004007EC9BFCE99AF90FD8E0E4C9FAE4CC15
:10048300FB2275F010EF2FFFEE33FEED33FDCC337F
:10049300CCC833C810D7079BEC9AE899400AED9B68
:1004A300FDEC9AFCE899F80FD5F0DAE4CDFBE4CC47
:1004B300FAE4C8F922BB010CE58229F582E5833A07
:1004C300F583E0225006E92582F8E622BBFE06E921
:1004D3002582F8E222E58229F582E5833AF583E471
:1004E3009322BB010689828A83F0225002F722BB42
:1004F300FE01F322FAE6FB0808E6F925F0F618E612
:10050300CA3AF622D083D082F8E49370127401932E
:10051300700DA3A393F8740193F5828883E4737435
:1005230002936860EFA3A3A380DF7F007EC27D01F7
:100533007C00120600D2AF7BFF7A0079031206BA61
:100543009080007403F0A3F0A3F0A3F090800FF069
:1005530090801FF090801EF090801DF090801CF022
:10056300908007F0908006F0908005F090800474EE
:1005730005F0E4FF8FC0E4F5E30FBF09F7E4F5E509
:1005830075E47075E2E775E140FF8FC075E3FF0F17
:10059300BF09F780FEC0E0C0F0C083C082C0D07541
:1005A300D000C000C00730981DC298900100E0043D
:1005B300F0E075F06484E5F0F0E02402F582E434C1
:1005C30001F583E599F0309925C299900167E0FF21
:1005D300900166E06F6015A3E004F0E075F0148409
:1005E300E5F0F0E02408F8E6F5998002C209D007A7
:1005F300D000D0D0D082D083D0F0D0E0328F258EFF
:10060300248D238C229080197403F0908018F0E4D9
:10061300900166F0A3F0900100F0A3F0C2097F20DF
:10062300FEFDFCAB25AA24A923A82212039BA80440
:10063300A905AA06AB077F007E407D387C00120423
:1006430026C3E49FFFE49EAD0775C824F5CB8DCA8E
:10065300F5CD8DCCD2CE759850D2AC22900167E007
:10066300FD900166E0FCC39D5006C3ED9CFE800D2A
:10067300ED2414FE900166E0FDC3EE9DFEEED394DF
:100683000140D9C2AC900166E004F0E075F0148437
:10069300E5F0F0E02408F8A607200918D2ACA3E09F
:1006A30004F0E075F01484E5F0F0E02408F8E6F5D2
:1006B30099D20922D2AC228B228A23892475340051
:1006C3007535007536258B378A38893985343A85EF
:1006D300353B85363C7B017A0079001206EA7B01C3
:1006E3007A00790002073F853740853841853942D2
:1006F300EBC53AFBEAC53BFAE9C53CF97F09784308
:10070300120382F60809E970010ADFF4AB3AAA3B47
:10071300A93C020082EFB40A07740D120723740A7E
:10072300309811A899B8130CC2983098FDA899C2B3
:1007330098B811F63099FDC299F599228B378A380A
:100743008939AB37AA38A93912038260130539E511
:10075300397002053814F9120382FF12065F80E232
:0D07630022787FE4F6D8FD75815002052D47
:00000001FF
