:10000000020820853740853841853942EBC53AFBE7
:10001000EAC53BFAE9C53CF97F097843120392F639
:100020000809E970010ADFF4AB3AAA3BA93C0200D7
:01003000923D
:1000330002053DE54C2440F8E6054C22783D3007A7
:10004300027840E475F0011205070203922000EBE9
:100053007F2ED2008018EF540F2490D43440D4FF65
:1000630030040BEF24BFB41A0050032461FFE54DA5
:100073006002154D0550E5507002054F30070D78AD
:100083003DE475F001120507EF0204F502077F74E2
:1000930003D2078003E4C207F54C8B3D8A3E893FB8
:1000A300E4F54DF54FF550E54D60077F20120071E3
:1000B30080F5754EFFC201C200C202C203C205C26F
:1000C30006C20812003FFF700D3007057F001200C3
:1000D30082AF50AE4F22B4255FC2D5C20412003F97
:1000E300FF24D0B40A00501A75F00A784D30D505B4
:1000F30008B6FF0106C6A426F620D5047002D20373
:1001030080D924CFB41A00EF5004C2E5D20402020E
:1001130082D20180C6D20080C0D20280BCD2D580F8
:10012300BAD20580B47F201200712002077401B592
:100133004D0040F1120036FF1200710200AAD208EE
:10014300D2068095120036FB120036FA120036F9F9
:100153004A4B700679537A037BFF20022EE54D60EC
:100163002A7E008E827583001204C860060EEE6537
:100173004E70F0C2D5EBC0E0EAC0E0E9C0E0EE1299
:1001830002C9D0E0F9D0E0FAD0E0FB120392FF609D
:10019300AAEBC0E0EAC0E0E9C0E0120071D0E024BD
:1001A30001F9D0E03400FAD0E0FBE54E0460DCD581
:1001B3004ED980877BFF7A0279C5D202809C791061
:1001C30080027908C206C2088008D2D5790A800461
:1001D300790AC2D5E54E047002F54EE4FAFDFEFF3E
:1001E300120036FC7B08200113120036FD7B103011
:1001F300000A120036FE120036FF7B20EC3382D554
:1002030092D55013C3E43000069FFFE49EFEE42022
:1002130001039DFDE49CFCE4CBF8C201EC700CCF20
:10022300CECDCCE824F8F870F38017C3EF33FFEE9C
:1002330033FEED33FDEC33FCEB33FB994002FB0F54
:10024300D8E9EB300105F8D0E0C448B201C0E00AB8
:10025300EC4D4E4F78207B0070C2EAB54E0040BC97
:10026300C0E01202CBD0F0D0E0200104C4C0E0C44F
:10027300B201C0F012005AD0F0D5F0EB0200AA127E
:10028300051701475301C15801184C01144201C518
:100293004F01CD4401CD49012D4301D35501B7464B
:1002A30001B74501B747037350011C2D01202E01EF
:1002B300432B012423014120035C2A00DC48000076
:1002C300013B3F3F3F00790AA2D5200314300509C3
:1002D300B910020404B9080104A2D5200602500192
:1002E300042002689202B54D005034C0E07F2030F4
:1002F30003197F30A20272067205500F120322C245
:1003030002C206C205C2087F30800F300503E9C070
:10031300E0120071300503D0E0F9D0E0B54DCC30E8
:1003230005177F30B9100C1200717F583004077F16
:10033300788003B908031200713002057F2D020093
:10034300717F202008F87F2B2006F322920280CFB2
:10035300286E756C6C2900D2011200363001F8C288
:1003630001784D30D50108F60200DC2D5043495881
:100373001200362403B405004001E490036E931287
:100383000062743A120062D203754D040201C1BBCC
:10039300010689828A83E0225002E722BBFE02E340
:1003A3002289828A83E49322E88FF0A4CC8BF0A481
:1003B3002CFCE98EF0A42CFC8AF0EDA42CFCEA8E34
:1003C300F0A4CDA8F08BF0A42DCC3825F0FDE98F57
:1003D300F0A42CCD35F0FCEB8EF0A4FEA9F0EB8F4E
:1003E300F0A4CFC5F02ECD39FEE43CFCEAA42DCE1B
:1003F30035F0FDE43CFC2275F008758200EF2FFF19
:10040300EE33FECD33CDCC33CCC58233C5829BEDE9
:100413009AEC99E58298400CF582EE9BFEED9AFDED
:10042300EC99FC0FD5F0D6E4CEFBE4CDFAE4CCF99D
:10043300A88222B800C1B90059BA002DEC8BF08410
:10044300CFCECDFCE5F0CBF97818EF2FFFEE33FEDE
:10045300ED33FDEC33FCEB33FB10D703994004EB96
:1004630099FB0FD8E5E4F9FA227818EF2FFFEE3362
:10047300FEED33FDEC33FCC933C910D7059BE99A74
:100483004007EC9BFCE99AF90FD8E0E4C9FAE4CC05
:10049300FB2275F010EF2FFFEE33FEED33FDCC336F
:1004A300CCC833C810D7079BEC9AE899400AED9B58
:1004B300FDEC9AFCE899F80FD5F0DAE4CDFBE4CC37
:1004C300FAE4C8F922BB010CE58229F582E5833AF7
:1004D300F583E0225006E92582F8E622BBFE06E911
:1004E3002582F8E222E58229F582E5833AF583E461
:1004F3009322BB010689828A83F0225002F722BB32
:10050300FE01F322FAE6FB0808E6F925F0F618E601
:10051300CA3AF622D083D082F8E49370127401931E
:10052300700DA3A393F8740193F5828883E4737425
:1005330002936860EFA3A3A380DFC0E0C0F0C08391
:10054300C082C0D075D000C007E59A30E023E59A99
:1005530054FC4401F59A900100E004F0E075F06466
:1005630084E5F0F0E02402F582E43401F583E59BB1
:10057300F0E59A30E131E59A54FC4402F59A900192
:100583007BE0FF90017AE06F601BA3E004F0E0756D
:10059300F01484E5F0F0E02466F582E43401F58399
:1005A300E0F59B8002C209D007D0D0D082D083D09F
:1005B300F0D0E0327F007EC27D017C0012068BD238
:1005C300AF7BFF7A08792C1206E390801A7402F04D
:1005D300A3F0908000F0908018F0A3F090800BF0CF
:1005E300A37405F0A37401F0A37405F0C2B2C2B3FF
:1005F300C280C2B0D2B112074E8E258F267BFF7AFE
:100603000879341206E312071D8E258F267BFF7AA5
:1006130008794B1206E37FD07E071207EF80D7904D
:10062300017BE0FD90017AE0FCC39D5006C3ED9C85
:10063300FE800DED2414FE90017AE0FDC3EE9DFED5
:10064300EED3940140D9C2AE90017AE004F0E07594
:10065300F01484E5F0F0E02466F582E43401F583D8
:10066300EFF0200920D2AE90017BE004F0E075F0BA
:100673001484E5F0F0E02466F582E43401F583E0C8
:10068300F59BD20922D2AE228F258E248D238C2274
:10069300E490017AF0A3F0900100F0A3F0C2097F87
:1006A30020FEFDFCAB25AA24A923A8221203ABA894
:1006B30004A905AA06AB077F007E407D387C0012A3
:1006C3000436C3E49FFF74049EAD07FC90800A7454
:1006D30003F0908009F08C9D8D9C759AD0D2AE2248
:1006E3008B228A2389247534007535007536258B52
:1006F300378A38893985343A85353B85363C7B01E1
:100703007A0079001200037B017A0079001207A6B0
:100713007534007535007536002275B91D1207CB87
:100723008FBB75BAE543B980E5B930E5FB43B92022
:10073300AFBDEFFEADBC7C00E42DFFEC3EC4F8542E
:10074300F0C868FEEFC4540F48FF2275B91D1207A5
:10075300CB8FBB75BAE743B980E5B930E5FB43B945
:1007630020AFBDEFFEADBC7C00E42DFFEC3EC4F832
:1007730054F0C868FEEFC4540F48FF22EFB40A07D1
:10078300740D12078A740A309811A899B8130CC211
:10079300983098FDA899C298B811F63099FDC2997E
:1007A300F599228B378A388939AB37AA38A9391298
:1007B300039260130539E5397002053814F9120301
:1007C30092FF12062280E22290FC017480F0E490F2
:1007D300FC06F090FC057424F090FC017481F0A3F6
:1007E300E0FFE490FC01F0EF543FFF228F828E8301
:1007F300E5821582AE83700215834E60097F147EF5
:100803000012080A80EA22EF1FAA0670011E4A603E
:100813000BE4FDEDC3940F50EE0D80F722787FE4D7
:10082300F6D8FD7581500205B773746172740A0DB1
:10083300006765745F6261745F61645F76616C75A4
:1008430065282564290A0D006765745F6E74635F0C
:1008530061645F76616C7565282564290A0D0074EF
:10086300657374320A0050303020496E70757420FD
:1008730048696768210A0050303020496E707574EA
:07088300204C6F77210A00F1
:00000001FF
