:10000000020C329080117403F0E4FF781CE6FEEFDE
:10001000C39E501D74162FF8E675F003A42421F535
:1000200082E43412F5831205E174041203E30F80B5
:0E003000DA2232020D494101000001080000F1
:10004300020FB2ED90127C93FE749A2FF582E43482
:0600530001F583EEF0222E
:03005B000200326E
:10006B00020E6FE559244DF8E6055922784A300700
:10007B0002784DE475F0011205D10203CA2000EBA2
:10008B007F2ED2008018EF540F2490D43440D4FF2D
:10009B0030040BEF24BFB41A0050032461FFE55A60
:1000AB006002155A055DE55D7002055C30070D7841
:1000BB004AE475F0011205D1EF0203E302117A74E1
:1000CB0003D2078003E4C207F5598B4A8A4B894C4C
:1000DB00E4F55AF55CF55DE55A60077F201200A93F
:1000EB0080F5755BFFC201C200C202C203C205C22A
:1000FB0006C208120077FF700D3007057F00120053
:10010B00BAAF5DAE5C22B4255FC2D5C204120077D4
:10011B00FF24D0B40A00501A75F00A785A30D5056E
:10012B0008B6FF0106C6A426F620D5047002D2033A
:10013B0080D924CFB41A00EF5004C2E5D2040202D6
:10014B00BAD20180C6D20080C0D20280BCD2D58088
:10015B00BAD20580B47F201200A92002077401B522
:10016B005A0040F112006EFF1200A90200E2D20801
:10017B00D206809512006EFB12006EFA12006EF919
:10018B004A4B7006798B7A037BFF20022EE55A606F
:10019B002A7E008E8275830012061A60060EEE65AB
:1001AB005B70F0C2D5EBC0E0EAC0E0E9C0E0EE1254
:1001BB000301D0E0F9D0E0FAD0E0FB1203CAFF60F4
:1001CB00AAEBC0E0EAC0E0E9C0E01200A9D0E0244D
:1001DB0001F9D0E03400FAD0E0FBE55B0460DCD53C
:1001EB005BD980877BFF7A0279FDD202809C7910E4
:1001FB0080027908C206C2088008D2D5790A800429
:10020B00790AC2D5E55B047002F55BE4FAFDFEFFEB
:10021B0012006EFC7B0820011312006EFD7B103068
:10022B00000A12006EFE12006EFF7B20EC3382D5AB
:10023B0092D55013C3E43000069FFFE49EFEE420EA
:10024B0001039DFDE49CFCE4CBF8C201EC700CCFE8
:10025B00CECDCCE824F8F870F38017C3EF33FFEE64
:10026B0033FEED33FDEC33FCEB33FB994002FB0F1C
:10027B00D8E9EB300105F8D0E0C448B201C0E00A80
:10028B00EC4D4E4F78207B0070C2EAB55B0040BC52
:10029B00C0E0120303D0F0D0E0200104C4C0E0C4DE
:1002AB00B201C0F0120092D0F0D5F0EB0200E212D6
:1002BB000647017F5301F95801504C014C4201FD97
:1002CB004F020544020549016543020B5501EF46F8
:1002DB0001EF4501EF4703AB5001542D01582E019F
:1002EB007B2B015C2301792003942A011448000025
:1002FB0001733F3F3F00790AA2D520031430050953
:10030B00B910020404B9080104A2D5200602500159
:10031B00042002689202B55A005034C0E07F2030AE
:10032B0003197F30A20272067205500F12035AC2D4
:10033B0002C206C205C2087F30800F300503E9C038
:10034B00E01200A9300503D0E0F9D0E0B55ACC306B
:10035B0005177F30B9100C1200A97F583004077FA6
:10036B00788003B908031200A93002057F2D020023
:10037B00A97F202008F87F2B2006F322920280CF42
:10038B00286E756C6C2900D20112006E3001F8C218
:10039B0001785A30D50108F60201142D5043495803
:1003AB0012006E2403B405004001E49003A69312DF
:1003BB00009A743A12009AD203755A040201F9BBDF
:1003CB00010689828A83E0225002E722BBFE02E308
:1003DB002289828A83E49322BB010689828A83F075
:1003EB00225002F722BBFE01F322EF8DF0A4A8F0FE
:1003FB00CF8CF0A428CE8DF0A42EFE22BC000BBE19
:10040B000029EF8DF084FFADF022E4CCF875F008F5
:10041B00EF2FFFEE33FEEC33FCEE9DEC984005FC2A
:10042B00EE9DFE0FD5F0E9E4CEFD22EDF8F5F0EEF2
:10043B008420D21CFEADF075F008EF2FFFED33FDDD
:10044B004007985006D5F0F222C398FD0FD5F0EA7D
:10045B0022C2D5EC30E709B2D5E4C39DFDE49CFC88
:10046B00EE30E715B2D5E4C39FFFE49EFE120407FE
:10047B00C3E49DFDE49CFC800312040730D507C345
:10048B00E49FFFE49EFE22C5F0F8A3E028F0C5F040
:10049B00F8E582158270021583E038F022E88FF0C0
:1004AB00A4CC8BF0A42CFCE98EF0A42CFC8AF0EDF0
:1004BB00A42CFCEA8EF0A4CDA8F08BF0A42DCC38A4
:1004CB0025F0FDE98FF0A42CCD35F0FCEB8EF0A4DC
:1004DB00FEA9F0EB8FF0A4CFC5F02ECD39FEE43C96
:1004EB00FCEAA42DCE35F0FDE43CFC2275F008753A
:1004FB008200EF2FFFEE33FECD33CDCC33CCC58254
:10050B0033C5829BED9AEC99E58298400CF582EE0F
:10051B009BFEED9AFDEC99FC0FD5F0D6E4CEFBE4F7
:10052B00CDFAE4CCF9A88222B800C1B90059BA00BF
:10053B002DEC8BF084CFCECDFCE5F0CBF97818EF1A
:10054B002FFFEE33FEED33FDEC33FCEB33FB10D71B
:10055B0003994004EB99FB0FD8E5E4F9FA227818DC
:10056B00EF2FFFEE33FEED33FDEC33FCC933C91037
:10057B00D7059BE99A4007EC9BFCE99AF90FD8E069
:10058B00E4C9FAE4CCFB2275F010EF2FFFEE33FE3B
:10059B00ED33FDCC33CCC833C810D7079BEC9AE8AE
:1005AB0099400AED9BFDEC9AFCE899F80FD5F0DA2F
:1005BB00E4CDFBE4CCFAE4C8F922A42582F582E56C
:1005CB00F03583F58322FAE6FB0808E6F925F0F609
:1005DB0018E6CA3AF622E493FB740193FA74029379
:1005EB00F922EC8EF0A4CCC5F0CCCDF8EFA4CEC59F
:1005FB00F02DFDE43CFCE8A42EC8C5F03DFDE43C29
:10060B00FCEFA4FFE5F028FEE43DFDE43CFC22BB3F
:10061B00010CE58229F582E5833AF583E022500649
:10062B00E92582F8E622BBFE06E92582F8E222E5FF
:10063B008229F582E5833AF583E49322D083D08235
:10064B00F8E4937012740193700DA3A393F87401E3
:10065B0093F5828883E4737402936860EFA3A3A37A
:10066B0080DF90015FE07018C20A90018CF0F50DED
:10067B00120F2390015F7401F0E4F5097508052250
:10068B0090015FE0FF64016003020724200A03026C
:10069B0007CCC20AE509702A1508E50860030207B2
:1006AB00CCE4F52F120B1A500F120AE1120AFCECD4
:1006BB00F0A3EDF0052F80EC75090190019A7428D9
:1006CB00F022E509640160030207CC90019AE06017
:1006DB00030207CCF52F120B1A5034120AE1120A3F
:1006EB00FCE0FAA3E0C39DF531EA9CF530D3E5318C
:1006FB009414E53064809480500DC3E53194ECE59F
:10070B00306480947F5004E4F50922052F80C79054
:10071B00015F7402F075080A22EF6402600302079E
:10072B00CC200A030207CCC20A1508E508600302B5
:10073B0007CCE4781DF6F52F120B73E52F9FEE1205
:10074B000B285079E4FF120AE1FCA3E0FDE52F1220
:10075B000B3175F002EF1205C5ECF0A3EDF00FBFF6
:10076B0005E4748D252F120B12E4F0E52F781C662F
:10077B00604B120AE1FEA3E0FFE52F120B4D120AAC
:10078B00D9120AE1FEA3E0FFE52F120AD0E52F25CF
:10079B00E025E0245FF582E43412F583E493FE74E4
:1007AB000193FFE52F25E0247EF582E43401120A44
:1007BB00D97D02AF2F120046052F0207437815761D
:1007CB000122900160E0AD107C002DFFEC33FEEFB9
:1007DB0025E0FFEE33FE740D2FF58274013EF58399
:1007EB00E022FAA3E0FBED2500FFEC33FEEF25E062
:1007FB00FFEE33FE74612FF58274013EF583E02228
:10080B0090127593FCFFEDC39FFFE49400FEEF780D
:10081B000522FFECFDC374809DFDE49400FC0204F3
:10082B005C75F00290010D0205C5FFC3EB9FFFEA5B
:10083B009E9001A0F0A3EFF0EDFF9001A0E48FF0EC
:10084B00020492E50090016175F0021205C5E0FE0D
:10085B00A3E0FF22FFC374209FFFE49400FE12036A
:10086B00F5EF780622C3EB9FEE6480F8EA6480987C
:10087B0022ED75F004A4FF9001A0E5F0F0A3EFF0DA
:10088B002290127593FFEDC39F22E500C313FEE583
:10089B000013FFC3E5009F22AC00AD00120407ADAF
:1008AB0007229001A0E0FAA3E0FBAE02780222FE41
:1008BB00A3E0FFAD03AC020205EDFEA3E02BFFEEC0
:1008CB003AFEC3EF22FEA3E0FBAA06E4F9F822905E
:1008DB0001A0E0FEA3E0780222AC00AD00120407F9
:1008EB00AD0722E4F52F120B571209DD8F30E52FE0
:1008FB00120B021209DD8F31E53164026008E5311C
:10090B0064036002C20BE530704EE5317039120B97
:10091B0065701B120AF0E060030209C0EF4EF6127D
:10092B000B3F743CF0120AF07402F00209C0120A79
:10093B00F07402F0120B3FE0707BE52F9012769370
:10094B00F4781E56F6804D120B65605F120AF0E0CC
:10095B007063EFF45EF68010E5317007120ABCE4A9
:10096B00FD804D781EE6600A120B4B120AC77D0202
:10097B00803E120B57E0FEA3E0FFE52F120B02E0C7
:10098B00FCA3E0FD7B147A001210C4EF601D120A69
:10099B00F0E07021120ABCE52F120B02E0FEA3E07F
:1009AB00FF120B4B120AD97D028005120ABCAD3126
:1009BB00AF2F120046052FE52FC3940650030208F4
:1009CB00F1781EE690018BF06004750F0122E4F5BF
:1009DB000F22E0FCA3E0FDE52F90127693781E56D4
:1009EB0024FF92007B147A00AF2F120E1022E4F535
:1009FB002F120B73E52F9FEE120B284003020ABB3D
:100A0B00120B0EE004F0120B0EE0C394054005121E
:100A1B000B0EE4F0C2E9E52F120AE3FEA3E0FF128E
:100A2B000B2FC083C082120B0EE0D082D08375F0E7
:100A3B00021205C5EEF0A3EFF0D2E9E4F530F53183
:100A4B00F532F53374FFF534F535E4FF120B2F75E2
:100A5B00F002EF1205C5E0FCA3E0FD2531F531EC0A
:100A6B003530F530D3ED9533EC953240048C328D27
:100A7B0033C3ED9535EC953450048C348D350FBF65
:100A8B0005CAC3E5319533FFE5309532FEC3EF95CB
:100A9B0035FFEE9534FE7C007D03120407E52F2510
:100AAB00E02461F582E43401120AD9052F0209FC16
:100ABB0022E52F25E02461F582E43401F583E0FE85
:100ACB00A3E0FFE52F25E02401F582E43401F58353
:100ADB00EEF0A3EFF022E52F25E02470F582E4344D
:100AEB0001F583E022749A252FF582E43401F58316
:100AFB0022FCA3E0FDE52F25E02461F582E434011F
:100B0B00F58322748D252FF582E43401F583227849
:100B1B001CE62401FDE433FCE52FC39DEC6480F857
:100B2B0074809822E52F75F00AA42419F582E43419
:100B3B0001F583227494252FF582E43401F5832289
:100B4B00E52F25E0240DF582E4340122E52F25E085
:100B5B002401F582E43401F58322E52F901276937C
:100B6B00FF781EE6FEEF5E22781CE62401FFE433DD
:100B7B00FEC322908109E054E06004E044E0F0857C
:100B8B00C022E4FD74017E00A805088005C333CEA6
:100B9B0033CED8F9FFACC7ECFBEF5B601F7401A839
:100BAB0005088002C333D8FCF5C78DC0ED25E024C2
:100BBB0023F8A6CFED25E02424F8A6CE0DBD06C460
:100BCB00E4FDED25E02423F8E6FE08E6FFE50D2D18
:100BDB0025E02470F582E43401120AD9EDFFE50D0E
:100BEB002FFFE433FE781CE66F7001EE60040DBD41
:100BFB0006D0E50D2406FFE433FE781CE6FDD3EFAB
:100C0B009D7480F86E984007D20AE4F50D80067447
:100C1B0006250DF50D120F2390018CE0600214F0E8
:100C2B0075AAA58522C022787FE4F6D8FD75815D73
:100C3B00020C79021061E493A3F8E493A34003F64A
:100C4B008001F208DFF48029E493A3F85407240C05
:100C5B00C8C333C4540F4420C8834004F4568001E6
:100C6B0046F6DFE4800B0102040810204080900060
:100C7B0036E47E019360BCA3FF543F30E509541F5B
:100C8B00FEE493A360010ECF54C025E060A840B8EA
:100C9B00E493A3FAE493A3F8E493A3C8C582C8CA68
:100CAB00C583CAF0A3C8C582C8CAC583CADFE9DE3B
:100CBB00E780BEE4F511F512E50E703990018BE07B
:100CCB00607BE4FFEF90127693FE90018BE05E6009
:100CDB000E8F0CEF90128193750A00F50B80040FA9
:100CEB00BF06E1850A11850B12C209751300751435
:100CFB00FA750E0122E50E64017042E50C90127636
:100D0B0093FF90018BE05F6021E5144513702E205B
:100D1B000908D209E50A44408004E50A4420F5118C
:100D2B00850B1275130075144622E50A200904443D
:100D3B001080024430F511850B12E4F50E22C0E051
:100D4B00C0F0C083C082C0D075D000C007E59A3018
:100D5B00E023E59A54FC4401F59A9001A2E004F0DB
:100D6B00E075F06484E5F0F0E024A4F582E434014E
:100D7B00F583E59BF0E59A30E11FE59A54FC4402BC
:100D8B00F59A90021DE0FF90021CE06F6009A31220
:100D9B00120BE0F59B8002C20CD007D0D0D082D0D2
:100DAB0083D0F0D0E032781C7606E4FFFEEE25E02F
:100DBB0025E0245DF582E43412F583740193FDACD8
:100DCB00070F74162CF8A6050EBE06E143A180434F
:100DDB00A28075F1E0E4F5EDD2EE12000375C20AC4
:100DEB0075C1409081037457F0D2E9C20AE49001B7
:100DFB008BF0781EF6F50F7815F690015FF0F50E77
:100E0B00F511F512228A328B33A907E912082CE06F
:100E1B00FEA3E0C39DFFEE9CAB07FAE990017E12A7
:100E2B00085330000B7C007D091203F50D12045C96
:100E3B0012087040037F0022D3EB9533E532120882
:100E4B007440037F0122C3EA6480948040037F02D5
:100E5B0022C3E49533FFE49532FE1208707F044001
:100E6B00027F0322C0E0C0F0C083C082C0D075D027
:100E7B0000C000C001C002C003C004C005C006C052
:100E8B0007E5EE30E21475EE04121096E5144513E7
:100E9B006008E514151470021513E5EE30E10675C4
:100EAB00EE0212114DD007D006D005D004D003D0DE
:100EBB0002D001D000D0D0D082D083D0F0D0E0329D
:100ECB008F328E318D308C2FE490021CF0A3F0907A
:100EDB0001A2F0A3F0C20C7F20FEFDFCAB32AA31C5
:100EEB00A930A82F1204A8A804A905AA06AB077F4E
:100EFB00007E807D517C01120533C3E49FFF740497
:100F0B009EAD07FC90800A7403F0908009F08C9DD5
:100F1B008D9C759AD0D2AE22E4FFEFC39406503E5F
:100F2B00EFFDE50D2DFDE433FC781CE6FBC3ED9BDB
:100F3B007480F86C9840168FC075C455EF04FEEEA4
:100F4B00C3940650198EC075C4400E80F28FC0E555
:100F5B000D2F2416F8E6044440F5C40F80BC43C1A2
:100F6B00802290021DE0FD90021CE0FCC39D500608
:100F7B00C3ED9CFE800DED2414FE90021CE0FDC31E
:100F8B00EE9DFEEED3940140D9C2AE90021C12121C
:100F9B000BEFF0200C0ED2AE90021D12120BE0F5EF
:100FAB009BD20C22D2AE22C0E0C0F0C083C082C064
:100FBB00D075D000C000C001C002C003C004C00582
:100FCB00C006C007E5C76003120B7ED007D006D062
:100FDB0005D004D003D002D001D000D0D0D082D025
:100FEB0083D0F0D0E0328B2F8A3089317541007578
:100FFB0042007543328B448A458946854147854279
:10100B00488543497B017A0079001210F27B017A03
:10101B000079001211C7754100754200754300221B
:10102B007815E614600804702A12066D8025300AC4
:10103B0010C20A1209F9D20BE50F64026003120801
:10104B00EE90018CE0C394054009E4F5C175C73FF0
:10105B00120DB1020CBE121120D2AF120DB17BFFDB
:10106B007A127995120FF17BFF7A12799C120FF19C
:10107B0012102B90018BE0FF600B7BFF7A12799F94
:10108B00F532120FF1E512451180DC900100E004FE
:10109B00F0E0C394044021E4F0FF781CE6FEEFC3BC
:1010AB009E5015749A2F120AF4E06009749A2F124D
:1010BB000AF4E014F00F80E222C3EF9DFFEE9CFEDA
:1010CB00D3EF9BEA6480F8EE6480985017C3E49BDF
:1010DB00FDE49AFCC3EF9DEC6480F8EE64809840CD
:1010EB00037F01227F002285444D85454E85464F67
:1010FB00EBC547FBEAC548FAE9C549F97F097850C2
:10110B001203CAF60809E970010ADFF4AB47AA48D3
:10111B00A9490200CA75EFC17F061211A17F007E9B
:10112B00C27D017C00120ECB43A18075A941E4F571
:10113B00AC75AB4B75AAA51211EBE5BB54C04FF5C3
:10114B00BB2290018CE004F0E4FF74942F120B434C
:10115B00E0600974942F120B43E014F00FBF06EA02
:10116B00781DE660011690018AE0600214F022EF10
:10117B00B40A07740D121185740A309811A899B826
:10118B00130CC2983098FDA899C298B811F63099F3
:10119B00FDC299F59922EFC39402401FEFD3940837
:1011AB005019EF24FE33333354F84480F5ADE5ADDD
:1011BB0030E0FBE5A254F84404F5A2228B448A45A7
:1011CB008946AB44AA45A9461203CA60127844E487
:1011DB0075F0011205D11203CAFF120F6D80E322C5
:1011EB0090FC017480F0E490FC06F090FC057424F4
:1011FB00F090FC017481F0A3E0FFE490FC01F0227D
:10120B00E004F0E075F01484E5F0F0E02408F582DA
:10121B00E43402F5832201800801800901800A0170
:10122B00800B01800C01800D01800E01800F01806D
:10123B001F01801E01801D01801C0180070180069B
:10124B0001800501800401800301800201800101FE
:10125B008000000000460001003C00020037000740
:10126B00002D000800370009004600010204081099
:10127B00200264501E1E0102030405060708090A1A
:10128B000B0C0D0E0F101112131473746172740A80
:10129B0000300A004B657973466C6167534E2564C9
:0212AB000A0037
:00000001FF
