:10000000020869C0E0C0F0C083C082C0D075D000D3
:10001000C000C001C002C003C004C005C006C007C4
:10002000E5B730E003120980D007D006D005D00430
:10003000D003D002D001D000D0D0D082D083D0F075
:10004000D0E032020BADED900DCF93FE74352FF55D
:0900500082E43400F583EEF02295
:0F005B0002000341003A33410000000121000080
:10006B00020AB4BB010CE58229F582E5833AF583DC
:10007B00E0225006E92582F8E622BBFE06E925823E
:10008B00F8E222E58229F582E5833AF583E49322AF
:10009B00BB010689828A83F0225002F722BBFE0144
:1000AB00F322F8BB010DE58229F582E5833AF5834E
:1000BB00E8F0225006E92582C8F622BBFE05E925A9
:1000CB0082C8F222EF8DF0A4A8F0CF8CF0A428CE3A
:1000DB008DF0A42EFE22BC000BBE0029EF8DF08408
:1000EB00FFADF022E4CCF875F008EF2FFFEE33FEF6
:1000FB00EC33FCEE9DEC984005FCEE9DFE0FD5F02D
:10010B00E9E4CEFD22EDF8F5F0EE8420D21CFEAD35
:10011B00F075F008EF2FFFED33FD4007985006D533
:10012B00F0F222C398FD0FD5F0EA22C2D5EC30E7EE
:10013B0009B2D5E4C39DFDE49CFCEE30E715B2D5C6
:10014B00E4C39FFFE49EFE1200E1C3E49DFDE49C2B
:10015B00FC80031200E130D507C3E49FFFE49EFE51
:10016B0022C5F0F8A3E028F0C5F0F8E582158270FF
:10017B00021583E038F02275F008758200EF2FFF2F
:10018B00EE33FECD33CDCC33CCC58233C5829BED64
:10019B009AEC99E58298400CF582EE9BFEED9AFD68
:1001AB00EC99FC0FD5F0D6E4CEFBE4CDFAE4CCF918
:1001BB00A88222B800C1B90059BA002DEC8BF0848B
:1001CB00CFCECDFCE5F0CBF97818EF2FFFEE33FE59
:1001DB00ED33FDEC33FCEB33FB10D703994004EB11
:1001EB0099FB0FD8E5E4F9FA227818EF2FFFEE33DD
:1001FB00FEED33FDEC33FCC933C910D7059BE99AEF
:10020B004007EC9BFCE99AF90FD8E0E4C9FAE4CC7F
:10021B00FB2275F010EF2FFFEE33FEED33FDCC33E9
:10022B00CCC833C810D7079BEC9AE899400AED9BD2
:10023B00FDEC9AFCE899F80FD5F0DAE4CDFBE4CCB1
:10024B00FAE4C8F922ECF0A3EDF0A3EEF0A3EFF083
:10025B0022A42582F582E5F03583F58322E493FB16
:10026B00740193FA740293F922EC8EF0A4CCC5F0CE
:10027B00CCCDF8EFA4CEC5F02DFDE43CFCE8A42ECC
:10028B00C8C5F03DFDE43CFCEFA4FFE5F028FEE41F
:10029B003DFDE43CFC2290001DE07018C201900073
:1002AB002CF0F526120B6390001D7401F0E4F5227F
:1002BB007521052290001DE0FF64016003020358C5
:1002CB00200103020403C201E522702A1521E52156
:1002DB006003020403E4F515120751500F120718BF
:1002EB00120733ECF0A3EDF0051580EC75220190AD
:1002FB0000357428F022E5226401600302040390A8
:10030B000035E06003020403F51512075150341257
:10031B000718120733E0FAA3E0C39DF517EA9CF523
:10032B0016D3E5179414E51664809480500DC3E53D
:10033B001794ECE5166480947F5004E4F5222205B3
:10034B001580C790001D7402F075210A22EF64021C
:10035B006003020403200103020403C2011521E51B
:10036B00216003020403E47836F6F5151207AAE5BB
:10037B00159FEE12075F5079E4FF120718FCA3E0FC
:10038B00FDE51512076875F002EF12025CECF0A3A5
:10039B00EDF00FBF05E4742F2515120749E4F0E5C6
:1003AB0015783566604B120718FEA3E0FFE51512B2
:1003BB000784120710120718FEA3E0FFE5151207BA
:1003CB0007E51525E025E024CBF582E4340DF58314
:1003DB00E493FE740193FFE51525E02428F582E4F0
:1003EB0034001207107D02AF1512004605150203EB
:1003FB0077120B10783376012290001EE0AD297C2A
:10040B00002DFFEC33FEEF25E0FFEE33FE74072FDC
:10041B00F58274003EF583E022FAA3E0FBED2500A4
:10042B00FFEC33FEEF25E0FFEE33FE741F2FF5825A
:10043B0074003EF583E022900DCD93FCFFEDC39F3E
:10044B00FFE49400FEEF780522FFECFDC374809D62
:10045B00FDE49400FC02013675F0029000070202E5
:10046B005CFFC3EB9FFFEA9E900037F0A3EFF0ED2C
:10047B00FF900037E48FF002016CE50090001F75D0
:10048B00F00212025CE0FEA3E0FF22FFC374209F88
:10049B00FFE49400FE1200CFEF780622C3EB9FEE31
:1004AB006480F8EA64809822ED75F004A4FF900054
:1004BB0037E5F0F0A3EFF022900DCD93FFEDC39F46
:1004CB0022E500C313FEE50013FFC3E5009F22AC3A
:1004DB0000AD001200E1AD0722900037E0FAA3E077
:1004EB00FBAE02780222FEA3E0FFAD03AC020202D8
:1004FB0074FEA3E02BFFEE3AFEC3EF22FEA3E0FB5C
:10050B00AA06E4F9F822900037E0FEA3E078022275
:10051B00AC00AD001200E1AD0722E4F51512078E19
:10052B001206148F16E5151207391206148F17E5EC
:10053B001764026008E51764036002C202E51670D7
:10054B004EE517703912079C701B120727E06003EA
:10055B000205F7EF4EF6120776743CF0120727747C
:10056B0002F00205F71207277402F0120776E0700B
:10057B007BE515900DCE93F4783756F6804D120728
:10058B009C605F120727E07063EFF45EF68010E566
:10059B001770071206F3E4FD804D7837E6600A12F8
:1005AB0007821206FE7D02803E12078EE0FEA3E05C
:1005BB00FFE515120739E0FCA3E0FD7B147A00126E
:1005CB000C82EF601D120727E070211206F3E51570
:1005DB00120739E0FEA3E0FF1207821207107D021B
:1005EB0080051206F3AD17AF151200460515E5157C
:1005FB00C3940150030205287837E690002BF06076
:10060B000475280122E4F52822E0FCA3E0FDE515A2
:10061B00900DCE9378375624FF92047B147A00AF5B
:10062B0015120A5522E4F5151207AAE5159FEE12CD
:10063B00075F40030206F2120745E004F01207457C
:10064B00E0C394054005120745E4F0C2E9E5151235
:10065B00071AFEA3E0FF120766C083C0821207458C
:10066B00E0D082D08375F00212025CEEF0A3EFF0C3
:10067B00D2E9E4F516F517F518F51974FFF51AF527
:10068B001BE4FF12076675F002EF12025CE0FCA39D
:10069B00E0FD2517F517EC3516F516D3ED9519EC8E
:1006AB00951840048C188D19C3ED951BEC951A50B9
:1006BB00048C1A8D1B0FBF05CAC3E5179519FFE5EF
:1006CB00169518FEC3EF951BFFEE951AFE7C007D69
:1006DB00031200E1E51525E0241FF582E434001236
:1006EB000710051502063322E51525E0241FF582B8
:1006FB00E43400F583E0FEA3E0FFE51525E02405D7
:10070B00F582E43400F583EEF0A3EFF022E5152536
:10071B00E02424F582E43400F583E02274352515BA
:10072B00F582E43400F58322FCA3E0FDE51525E01A
:10073B00241FF582E43400F58322742F2515F582EE
:10074B00E43400F583227835E62401FDE433FCE53F
:10075B0015C39DEC6480F874809822E51575F00A3A
:10076B00A42409F582E43400F5832274312515F5B0
:10077B0082E43400F58322E51525E02407F582E4B5
:10078B00340022E51525E02405F582E43400F583D9
:10079B0022E515900DCE93FF7837E6FEEF5E2278BB
:1007AB0035E62401FFE433FEC322908109E054E0D7
:1007BB006004E044E0F085C008E4FD74017E00A80D
:1007CB0005088005C333CE33CED8F9FFACC7ECFB9D
:1007DB00EF5B601F7401A805088002C333D8FCF5DA
:1007EB00C78DC0ED25E02409F8A6CFED25E0240A3E
:1007FB00F8A6CE0DBD06C4E4FDED25E02409F8E610
:10080B00FE08E6FFE5262D25E02424F582E43400DE
:10081B00120710EDFFE5262FFFE433FE7835E66F68
:10082B007001EE60040DBD06D0E5262406FFE4330F
:10083B00FE7835E6FDD3EF9D7480F86E984007D2B5
:10084B0001E4F526800674062526F526120B639027
:10085B00002CE0600214F075AAA58508C022787FF1
:10086B00E4F6D8FD7581370208B0020D72E493A34C
:10087B00F8E493A34003F68001F208DFF48029E447
:10088B0093A3F85407240CC8C333C4540F4420C893
:10089B00834004F456800146F6DFE4800B0102042A
:1008AB00081020408090005EE47E019360BCA3FFA3
:1008BB00543F30E509541FFEE493A360010ECF545F
:1008CB00C025E060A840B8E493A3FAE493A3F8E44E
:1008DB0093A3C8C582C8CAC583CAF0A3C8C582C8BA
:1008EB00CAC583CADFE9DEE780BEE4F52AF52BE54E
:1008FB0027703990002BE0607BE4FFEF900DCE93D7
:10090B00FE90002BE05E600E8F25EF900DD493755B
:10091B002300F52480040FBF01E185232A85242BB6
:10092B00C200752C00752DFA75270122E52764018D
:10093B007042E525900DCE93FF90002BE05F602178
:10094B00E52D452C702E200008D200E52344408075
:10095B0004E5234420F52A85242B752C00752D46A0
:10096B0022E523200004441080024430F52A85241C
:10097B002BE4F5272290003A7433F0AFB6BF600733
:10098B007532FFC2038048EF6480704830030E0558
:10099B0032120D83F58312006EF5B58047E532B444
:1009AB00FF2085B531E53175F003A424E8F582E429
:1009BB00340DF5831202688B2E8A2F8930E4F532C1
:1009CB00800D120D83758300E5B51200AD05324322
:1009DB00B1048010BFA80D120D8375830012006E39
:1009EB00F5B5D20343B70122120CB078357601E48A
:1009FB00FFFEEE25E025E024C9F582E4340DF583F6
:100A0B00740193FDAC070F74342CF8A6050EBE01D0
:100A1B00E143A18043A28075F1E0E4F5EDD2EE1243
:100A2B000C2575C20A75C1409081037457F0D2E949
:100A3B00C201E490002BF07837F6F5287833F69066
:100A4B00001DF0F527F52AF52B228A188B19A9071B
:100A5B00E9120463E0FEA3E0C39DFFEE9CAB07FA33
:100A6B00E990002812048A30040B7C007D091200E7
:100A7B00CF0D1201361204A740037F0022D3EB9552
:100A8B0019E5181204AB40037F0122C3EA6480947A
:100A9B008040037F0222C3E49519FFE49518FE12F0
:100AAB0004A77F0440027F0322C0E0C0F0C083C0D4
:100ABB0082C0D075D000C000C001C002C003C0040A
:100ACB00C005C006C007E5EE30E21475EE04120C4B
:100ADB0054E52D452C6008E52D152D7002152CE5E0
:100AEB00EE30E10675EE02120CDDD007D006D00514
:100AFB00D004D003D002D001D000D0D0D082D0838C
:100B0B00D0F0D0E03290002BE0FFE4FCFDFE900033
:100B1B00011202507833E6900032F09000397401E4
:100B2B00F0E4FF74342FF8E6FE74362FF582E434CC
:100B3B0000F583EEF00FBF01EA900021E0FFA3E088
:100B4B0090002DCFF0A3EFF090002DE0FFA3E090ED
:100B5B000033CFF0A3EFF022E4FFEFC39406503E37
:100B6B00EFFDE5262DFDE433FC7835E6FBC3ED9B6D
:100B7B007480F86C9840168FC075C455EF04FEEE68
:100B8B00C3940650198EC075C4400E80F28FC0E519
:100B9B00262F2434F8E6044440F5C40F80BC43C12F
:100BAB008022C0E0C0F0C083C082C0D075D000C02E
:100BBB0000C001C002C003C004C005C006C007E5E9
:100BCB00C760031207B5D007D006D005D004D003F9
:100BDB00D002D001D000D0D0D082D083D0F0D0E0E2
:100BEB00327833E614600804702D1202A18028308D
:100BFB000113C201120630D202E52864026003120F
:100C0B000525120B1090002CE0C394054009E4F568
:100C1B00C175C73F1209F30208F59080117403F0F8
:100C2B00E4FF7835E6FEEFC39E501D74342FF8E6D3
:100C3B0075F003A4248DF582E4340DF5831202685C
:100C4B00740412009B0F80DA22900000E004F0E0A5
:100C5B00C394044021E4F0FF7835E6FEEFC39E50C9
:100C6B001574352F12072BE0600974352F12072BE3
:100C7B00E014F00F80E222C3EF9DFFEE9CFED3EF5A
:100C8B009BEA6480F8EE6480985017C3E49BFDE404
:100C9B009AFCC3EF9DEC6480F8EE64809840037F70
:100CAB0001227F00229081017401F090800974066B
:100CBB00F090800AF0908129E054DFF090812AE0D7
:100CCB0054DFF075B1C475B26575B420D2EC43F83E
:100CDB00102290002CE004F0E4FF74312F12077AFD
:100CEB00E0600974312F12077AE014F00FBF01EAAC
:100CFB007836E660011690002AE0600214F022EFCD
:100D0B00C39402401FEFD394085019EF24FE3333E2
:100D1B003354F84480F5ADE5AD30E0FBE5A254F873
:100D2B004404F5A22275EFC17F06120D0A43A18080
:100D3B0075A941E4F5AC75AB4B75AAA5120D52E53F
:100D4B00BB54C04FF5BB2290FC017480F0E490FCC7
:100D5B0006F090FC057424F090FC017481F0A3E084
:100D6B00FFE490FC01F022120D30D2AF1209F31206
:100D7B000BECE52B452A80F7AB2EAA2FA930853239
:100D8B00822201800801800901800A01800B018009
:100D9B000C01800D01800E01800F01801F01801E50
:100DAB0001801D01801C0180070180060180050167
:100DBB008004018003018002018001018000000D8D
:100DCB00004600010264501E1E01020304050607C3
:100DDB0008090A0B0C0D0E0F101112131401003A17
:100DEB0001003201003901003301002D0100010126
:0B0DFB00000701001F01002801003666
:00000001FF
