:10000000020C329080117403F0E4FF7817E6FEEFE3
:10001000C39E501D74162FF8E675F003A424A7F5AF
:1000200082E43411F5831205B874041203CA0F80F8
:0E003000DA2232020D4941007C000108000076
:10004300020FB2ED9011E993FE74A82FF582E43408
:0600530000F583EEF0222F
:09005B00020032120F6D7F002239
:10006B00020E6FE53E2432F8E6053E22782F30076C
:10007B00027832E475F0011206370205F12000EB2D
:10008B007F2ED2008018EF540F2490D43440D4FF2D
:10009B0030040BEF24BFB41A0050032461FFE53F7B
:1000AB006002153F0542E5427002054130070D78AD
:1000BB002FE475F001120637EF0203CA02005E74DB
:1000CB0003D2078003E4C207F53E8B2F8A308931B8
:1000DB00E4F53FF541F542E53F60077F201200A9AB
:1000EB0080F57540FFC201C200C202C203C205C245
:1000FB0006C208120077FF700D3007057F00120053
:10010B00BAAF42AE4122B4255FC2D5C2041200770A
:10011B00FF24D0B40A00501A75F00A783F30D50589
:10012B0008B6FF0106C6A426F620D5047002D2033A
:10013B0080D924CFB41A00EF5004C2E5D2040202D6
:10014B00BAD20180C6D20080C0D20280BCD2D58088
:10015B00BAD20580B47F201200A92002077401B522
:10016B003F0040F112006EFF1200A90200E2D2081C
:10017B00D206809512006EFB12006EFA12006EF919
:10018B004A4B7006798B7A037BFF20022EE53F608A
:10019B002A7E008E8275830012060A60060EEE65BB
:1001AB004070F0C2D5EBC0E0EAC0E0E9C0E0EE126F
:1001BB000301D0E0F9D0E0FAD0E0FB1205F1FF60CB
:1001CB00AAEBC0E0EAC0E0E9C0E01200A9D0E0244D
:1001DB0001F9D0E03400FAD0E0FBE5400460DCD557
:1001EB0040D980877BFF7A0279FDD202809C7910FF
:1001FB0080027908C206C2088008D2D5790A800429
:10020B00790AC2D5E540047002F540E4FAFDFEFF21
:10021B0012006EFC7B0820011312006EFD7B103068
:10022B00000A12006EFE12006EFF7B20EC3382D5AB
:10023B0092D55013C3E43000069FFFE49EFEE420EA
:10024B0001039DFDE49CFCE4CBF8C201EC700CCFE8
:10025B00CECDCCE824F8F870F38017C3EF33FFEE64
:10026B0033FEED33FDEC33FCEB33FB994002FB0F1C
:10027B00D8E9EB300105F8D0E0C448B201C0E00A80
:10028B00EC4D4E4F78207B0070C2EAB5400040BC6D
:10029B00C0E0120303D0F0D0E0200104C4C0E0C4DE
:1002AB00B201C0F0120092D0F0D5F0EB0200E212D6
:1002BB000647017F5301F95801504C014C4201FD97
:1002CB004F020544020549016543020B5501EF46F8
:1002DB0001EF4501EF4703AB5001542D01582E019F
:1002EB007B2B015C2301792003942A011448000025
:1002FB0001733F3F3F00790AA2D520031430050953
:10030B00B910020404B9080104A2D5200602500159
:10031B00042002689202B53F005034C0E07F2030C9
:10032B0003197F30A20272067205500F12035AC2D4
:10033B0002C206C205C2087F30800F300503E9C038
:10034B00E01200A9300503D0E0F9D0E0B53FCC3086
:10035B0005177F30B9100C1200A97F583004077FA6
:10036B00788003B908031200A93002057F2D020023
:10037B00A97F202008F87F2B2006F322920280CF42
:10038B00286E756C6C2900D20112006E3001F8C218
:10039B0001783F30D50108F60201142D504349581E
:1003AB0012006E2403B405004001E49003A69312DF
:1003BB00009A743A12009AD203753F040201F9BBFA
:1003CB00010689828A83F0225002F722BBFE01F3D9
:1003DB0022EF8DF0A4A8F0CF8CF0A428CE8DF0A442
:1003EB002EFE22BC000BBE0029EF8DF084FFADF07A
:1003FB0022E4CCF875F008EF2FFFEE33FEEC33FC64
:10040B00EE9DEC984005FCEE9DFE0FD5F0E9E4CE99
:10041B00FD22EDF8F5F0EE8420D21CFEADF075F068
:10042B0008EF2FFFED33FD4007985006D5F0F22271
:10043B00C398FD0FD5F0EA22C2D5EC30E709B2D54F
:10044B00E4C39DFDE49CFCEE30E715B2D5E4C39FFD
:10045B00FFE49EFE1203EEC3E49DFDE49CFC8003CF
:10046B001203EE30D507C3E49FFFE49EFE22C5F0D6
:10047B00F8A3E028F0C5F0F8E58215827002158329
:10048B00E038F022E88FF0A4CC8BF0A42CFCE98EA2
:10049B00F0A42CFC8AF0EDA42CFCEA8EF0A4CDA8E1
:1004AB00F08BF0A42DCC3825F0FDE98FF0A42CCDEA
:1004BB0035F0FCEB8EF0A4FEA9F0EB8FF0A4CFC5CA
:1004CB00F02ECD39FEE43CFCEAA42DCE35F0FDE454
:1004DB003CFC2275F008758200EF2FFFEE33FECD4A
:1004EB0033CDCC33CCC58233C5829BED9AEC99E5E9
:1004FB008298400CF582EE9BFEED9AFDEC99FC0F79
:10050B00D5F0D6E4CEFBE4CDFAE4CCF9A88222B840
:10051B0000C1B90059BA002DEC8BF084CFCECDFCC5
:10052B00E5F0CBF97818EF2FFFEE33FEED33FDEC52
:10053B0033FCEB33FB10D703994004EB99FB0FD83B
:10054B00E5E4F9FA227818EF2FFFEE33FEED33FDD9
:10055B00EC33FCC933C910D7059BE99A4007EC9BD8
:10056B00FCE99AF90FD8E0E4C9FAE4CCFB2275F068
:10057B0010EF2FFFEE33FEED33FDCC33CCC833C879
:10058B0010D7079BEC9AE899400AED9BFDEC9AFC7F
:10059B00E899F80FD5F0DAE4CDFBE4CCFAE4C8F92E
:1005AB0022A42582F582E5F03583F58322E493FBC3
:1005BB00740193FA740293F922EC8EF0A4CCC5F07B
:1005CB00CCCDF8EFA4CEC5F02DFDE43CFCE8A42E79
:1005DB00C8C5F03DFDE43CFCEFA4FFE5F028FEE4CC
:1005EB003DFDE43CFC22BB010689828A83E022505C
:1005FB0002E722BBFE02E32289828A83E49322BBB9
:10060B00010CE58229F582E5833AF583E022500659
:10061B00E92582F8E622BBFE06E92582F8E222E50F
:10062B008229F582E5833AF583E49322FAE6FB0807
:10063B0008E6F925F0F618E6CA3AF622D083D082FE
:10064B00F8E4937012740193700DA3A393F87401E3
:10065B0093F5828883E4737402936860EFA3A3A37A
:10066B0080DF900095E07018C20A9000A4F0F50DA1
:10067B00120F239000957401F0E4F509750805221B
:10068B00900095E0FF64016003020724200A030237
:10069B0007CCC20AE509702A1508E50860030207B2
:1006AB00CCE4F52F120B1A500F120AE1120AFCECD4
:1006BB00F0A3EDF0052F80EC7509019000A87428CC
:1006CB00F022E509640160030207CC9000A8E0600A
:1006DB00030207CCF52F120B1A5034120AE1120A3F
:1006EB00FCE0FAA3E0C39DF531EA9CF530D3E5318C
:1006FB009414E53064809480500DC3E53194ECE59F
:10070B00306480947F5004E4F50922052F80C79054
:10071B0000957402F075080A22EF64026003020769
:10072B00CC200A030207CCC20A1508E508600302B5
:10073B0007CCE47818F6F52F120B73E52F9FEE120A
:10074B000B285079E4FF120AE1FCA3E0FDE52F1220
:10075B000B3175F002EF1205ACECF0A3EDF00FBF0F
:10076B0005E474A5252F120B12E4F0E52F7817661C
:10077B00604B120AE1FEA3E0FFE52F120B4D120AAC
:10078B00D9120AE1FEA3E0FFE52F120AD0E52F25CF
:10079B00E025E024E5F582E43411F583E493FE745F
:1007AB000193FFE52F25E024A0F582E43400120A23
:1007BB00D97D02AF2F120046052F0207437815761D
:1007CB000122900096E0AD107C002DFFEC33FEEF84
:1007DB0025E0FFEE33FE747F2FF58274003EF58328
:1007EB00E022FAA3E0FBED2500FFEC33FEEF25E062
:1007FB00FFEE33FE74972FF58274003EF583E022F3
:10080B009011E793FCFFEDC39FFFE49400FEEF789C
:10081B000522FFECFDC374809DFDE49400FC0204F3
:10082B004375F00290007F0205ACFFC3EB9FFFEA1C
:10083B009E9000A9F0A3EFF0EDFF9000A9E48FF0DC
:10084B00020479E50090009775F0021205ACE0FE0A
:10085B00A3E0FF22FFC374209FFFE49400FE12036A
:10086B00DCEF780622C3EB9FEE6480F8EA64809895
:10087B0022ED75F004A4FF9000A9E5F0F0A3EFF0D2
:10088B00229011E793FFEDC39F22E500C313FEE512
:10089B000013FFC3E5009F22AC00AD001203EEADC9
:1008AB0007229000A9E0FAA3E0FBAE02780222FE39
:1008BB00A3E0FFAD03AC020205C4FEA3E02BFFEEE9
:1008CB003AFEC3EF22FEA3E0FBAA06E4F9F822905E
:1008DB0000A9E0FEA3E0780222AC00AD001203EE0B
:1008EB00AD0722E4F52F120B571209DD8F30E52FE0
:1008FB00120B021209DD8F31E53164026008E5311C
:10090B0064036002C20BE530704EE5317039120B97
:10091B0065701B120AF0E060030209C0EF4EF6127D
:10092B000B3F743CF0120AF07402F00209C0120A79
:10093B00F07402F0120B3FE0707BE52F9011E893FF
:10094B00F4781956F6804D120B65605F120AF0E0D1
:10095B007063EFF45EF68010E5317007120ABCE4A9
:10096B00FD804D7819E6600A120B4B120AC77D0207
:10097B00803E120B57E0FEA3E0FFE52F120B02E0C7
:10098B00FCA3E0FD7B147A0012108BEF601D120AA2
:10099B00F0E07021120ABCE52F120B02E0FEA3E07F
:1009AB00FF120B4B120AD97D028005120ABCAD3126
:1009BB00AF2F120046052FE52FC3940150030208F9
:1009CB00F17819E69000A3F06004750F0122E4F5AD
:1009DB000F22E0FCA3E0FDE52F9011E89378195668
:1009EB0024FF92007B147A00AF2F120E1022E4F535
:1009FB002F120B73E52F9FEE120B284003020ABB3D
:100A0B00120B0EE004F0120B0EE0C394054005121E
:100A1B000B0EE4F0C2E9E52F120AE3FEA3E0FF128E
:100A2B000B2FC083C082120B0EE0D082D08375F0E7
:100A3B00021205ACEEF0A3EFF0D2E9E4F530F5319C
:100A4B00F532F53374FFF534F535E4FF120B2F75E2
:100A5B00F002EF1205ACE0FCA3E0FD2531F531EC23
:100A6B003530F530D3ED9533EC953240048C328D27
:100A7B0033C3ED9535EC953450048C348D350FBF65
:100A8B0005CAC3E5319533FFE5309532FEC3EF95CB
:100A9B0035FFEE9534FE7C007D031203EEE52F252A
:100AAB00E02497F582E43400120AD9052F0209FCE1
:100ABB0022E52F25E02497F582E43400F583E0FE50
:100ACB00A3E0FFE52F25E0247DF582E43400F583D8
:100ADB00EEF0A3EFF022E52F25E0249CF582E43421
:100AEB0000F583E02274A8252FF582E43400F5830A
:100AFB0022FCA3E0FDE52F25E02497F582E43400EA
:100B0B00F5832274A5252FF582E43400F583227832
:100B1B0017E62401FDE433FCE52FC39DEC6480F85C
:100B2B0074809822E52F75F00AA42481F582E434B1
:100B3B0000F5832274A7252FF582E43400F5832278
:100B4B00E52F25E0247FF582E4340022E52F25E014
:100B5B00247DF582E43400F58322E52F9011E89390
:100B6B00FF7819E6FEEF5E227817E62401FFE433E7
:100B7B00FEC322908109E054E06004E044E0F0857C
:100B8B00C022E4FD74017E00A805088005C333CEA6
:100B9B0033CED8F9FFACC7ECFBEF5B601F7401A839
:100BAB0005088002C333D8FCF5C78DC0ED25E024C2
:100BBB0023F8A6CFED25E02424F8A6CE0DBD06C460
:100BCB00E4FDED25E02423F8E6FE08E6FFE50D2D18
:100BDB0025E0249CF582E43400120AD9EDFFE50DE3
:100BEB002FFFE433FE7817E66F7001EE60040DBD46
:100BFB0006D0E50D2406FFE433FE7817E6FDD3EFB0
:100C0B009D7480F86E984007D20AE4F50D80067447
:100C1B0006250DF50D120F239000A4E0600214F0D1
:100C2B0075AAA58522C022787FE4F6D8FD7581428E
:100C3B00020C79020FF1E493A3F8E493A34003F6BB
:100C4B008001F208DFF48029E493A3F85407240C05
:100C5B00C8C333C4540F4420C8834004F4568001E6
:100C6B0046F6DFE4800B0102040810204080900060
:100C7B0036E47E019360BCA3FF543F30E509541F5B
:100C8B00FEE493A360010ECF54C025E060A840B8EA
:100C9B00E493A3FAE493A3F8E493A3C8C582C8CA68
:100CAB00C583CAF0A3C8C582C8CAC583CADFE9DE3B
:100CBB00E780BEE4F511F512E50E70399000A3E064
:100CCB00607BE4FFEF9011E893FE9000A3E05E6081
:100CDB000E8F0CEF9011EE93750A00F50B80040F3D
:100CEB00BF01E1850A11850B12C20975130075143A
:100CFB00FA750E0122E50E64017042E50C9011E8C5
:100D0B0093FF9000A3E05F6021E5144513702E2044
:100D1B000908D209E50A44408004E50A4420F5118C
:100D2B00850B1275130075144622E50A200904443D
:100D3B001080024430F511850B12E4F50E22C0E051
:100D4B00C0F0C083C082C0D075D000C007E59A3018
:100D5B00E023E59A54FC4401F59A900000E004F07E
:100D6B00E075F06484E5F0F0E02402F582E43400F1
:100D7B00F583E59BF0E59A30E11FE59A54FC4402BC
:100D8B00F59A90007BE0FF90007AE06F6009A31268
:100D9B001191E0F59B8002C20CD007D0D0D082D04D
:100DAB0083D0F0D0E03278177601E4FFFEEE25E039
:100DBB0025E024E3F582E43411F583740193FDAC53
:100DCB00070F74162CF8A6050EBE01E143A1804354
:100DDB00A28075F1E0E4F5EDD2EE12000375C20AC4
:100DEB0075C1409081037457F0D2E9C20AE49000B8
:100DFB00A3F07819F6F50F7815F6900095F0F50E2F
:100E0B00F511F512228A328B33A907E912082CE06F
:100E1B00FEA3E0C39DFFEE9CAB07FAE99000A01286
:100E2B00085330000B7C007D091203DC0D120443C8
:100E3B0012087040037F0022D3EB9533E532120882
:100E4B007440037F0122C3EA6480948040037F02D5
:100E5B0022C3E49533FFE49532FE1208707F044001
:100E6B00027F0322C0E0C0F0C083C082C0D075D027
:100E7B0000C000C001C002C003C004C005C006C052
:100E8B0007E5EE30E21475EE0412105DE514451320
:100E9B006008E514151470021513E5EE30E10675C4
:100EAB00EE021210E6D007D006D005D004D003D046
:100EBB0002D001D000D0D0D082D083D0F0D0E0329D
:100ECB008F328E318D308C2FE490007AF0A3F0901E
:100EDB000000F0A3F0C20C7F20FEFDFCAB32AA3168
:100EEB00A930A82F12048FA804A905AA06AB077F67
:100EFB00007E807D517C0112051AC3E49FFF7404B0
:100F0B009EAD07FC9080097403F090800AF08C9DD5
:100F1B008D9C759AD0D2AE22E4FFEFC39406503E5F
:100F2B00EFFDE50D2DFDE433FC7817E6FBC3ED9BE0
:100F3B007480F86C9840168FC075C455EF04FEEEA4
:100F4B00C3940650198EC075C4400E80F28FC0E555
:100F5B000D2F2416F8E6044440F5C40F80BC43C1A2
:100F6B00802290007BE0FD90007AE0FCC39D500650
:100F7B00C3ED9CFE800DED2414FE90007AE0FDC3C2
:100F8B00EE9DFEEED3940140D9C2AE90007A1211C1
:100F9B0091EFF0200C0ED2AE90007B121191E0F588
:100FAB009BD20C22D2AE22C0E0C0F0C083C082C064
:100FBB00D075D000C000C001C002C003C004C00582
:100FCB00C006C007E5C76003120B7ED007D006D062
:100FDB0005D004D003D002D001D000D0D0D082D025
:100FEB0083D0F0D0E0321210B9D2AF7BFF7A1279F6
:100FFB00021200D0120DB17F647E00121176121016
:10100B00277BFF7A12790A900097E0540FF532A3F1
:10101B00E0F5331200D0E512451180DB7815E614AC
:10102B00600804702A12066D8025300A10C20A125D
:10103B0009F9D20BE50F640260031208EE9000A4CD
:10104B00E0C394054009E4F5C175C73F120DB10229
:10105B000CBE90007CE004F0E0C394044021E4F06B
:10106B00FF7817E6FEEFC39E501574A82F120AF4F3
:10107B00E0600974A82F120AF4E014F00F80E2224A
:10108B00C3EF9DFFEE9CFED3EF9BEA6480F8EE640A
:10109B0080985017C3E49BFDE49AFCC3EF9DEC646E
:1010AB0080F8EE64809840037F01227F002275EF69
:1010BB00C17F061211137F007EC27D017C00120ED0
:1010CB00CB43A18075A941E4F5AC75AB4B75AAA5D3
:1010DB00121139E5BB54C04FF5BB229000A4E004BC
:1010EB00F0E4FF74A72F120B43E0600974A72F12D3
:1010FB000B43E014F00FBF01EA7818E6600116907D
:10110B0000A2E0600214F022EFC39402401FEFD361
:10111B0094085019EF24FE33333354F84480F5AD63
:10112B00E5AD30E0FBE5A254F84404F5A22290FCB7
:10113B00017480F0E490FC06F090FC057424F090B0
:10114B00FC017481F0A3E0FFE490FC01F0227C0031
:10115B007D061203DCEF1FAC0670011E4C600BE426
:10116B00FBEBC3940F50EE0B80F7228F828E83E53F
:10117B00821582AE83700215834E60097F147E0048
:10118B0012115980EA22E004F0E075F01484E5F0C6
:10119B00F0E02466F582E43400F583220180080137
:1011AB00800901800A01800B01800C01800D0180F8
:1011BB000E01800F01801F01801E01801D01801C0C
:1011CB000180070180060180050180040180030175
:1011DB008002018001018000000D004600010264C5
:1011EB00501E1E0102030405060708090A0B0C0D0D
:1011FB000E0F101112131473746172740A0D0035F3
:06120B003A25640A0D0003
:00000001FF
